{
  "contractName": "Rating",
  "abi": [
    {
      "constant": true,
      "inputs": [
        {
          "name": "",
          "type": "uint256"
        }
      ],
      "name": "teachers",
      "outputs": [
        {
          "name": "id",
          "type": "uint256"
        },
        {
          "name": "name",
          "type": "string"
        },
        {
          "name": "image",
          "type": "string"
        },
        {
          "name": "age",
          "type": "uint256"
        },
        {
          "name": "department",
          "type": "string"
        },
        {
          "name": "rank",
          "type": "string"
        },
        {
          "name": "rating",
          "type": "uint256"
        },
        {
          "name": "ratingCount",
          "type": "uint256"
        }
      ],
      "payable": false,
      "stateMutability": "view",
      "type": "function"
    },
    {
      "constant": true,
      "inputs": [],
      "name": "teachersCount",
      "outputs": [
        {
          "name": "",
          "type": "uint256"
        }
      ],
      "payable": false,
      "stateMutability": "view",
      "type": "function"
    },
    {
      "constant": true,
      "inputs": [],
      "name": "totalRates",
      "outputs": [
        {
          "name": "",
          "type": "uint256"
        }
      ],
      "payable": false,
      "stateMutability": "view",
      "type": "function"
    },
    {
      "constant": true,
      "inputs": [
        {
          "name": "",
          "type": "address"
        }
      ],
      "name": "raters",
      "outputs": [
        {
          "name": "t1",
          "type": "bool"
        },
        {
          "name": "t2",
          "type": "bool"
        },
        {
          "name": "t3",
          "type": "bool"
        },
        {
          "name": "t4",
          "type": "bool"
        }
      ],
      "payable": false,
      "stateMutability": "view",
      "type": "function"
    },
    {
      "inputs": [],
      "payable": false,
      "stateMutability": "nonpayable",
      "type": "constructor"
    },
    {
      "anonymous": false,
      "inputs": [
        {
          "indexed": true,
          "name": "_teacherId",
          "type": "uint256"
        }
      ],
      "name": "ratedEvent",
      "type": "event"
    },
    {
      "constant": false,
      "inputs": [],
      "name": "toggleContractActive",
      "outputs": [],
      "payable": false,
      "stateMutability": "nonpayable",
      "type": "function"
    },
    {
      "constant": false,
      "inputs": [
        {
          "name": "_teacherId",
          "type": "uint256"
        },
        {
          "name": "value",
          "type": "uint256"
        }
      ],
      "name": "rate",
      "outputs": [],
      "payable": false,
      "stateMutability": "nonpayable",
      "type": "function"
    }
  ],
  "bytecode": "0x608060405260008060006101000a81548160ff0219169083151502179055503480156200002b57600080fd5b5033600060016101000a81548173ffffffffffffffffffffffffffffffffffffffff021916908373ffffffffffffffffffffffffffffffffffffffff1602179055506200016260016040805190810160405280600581526020017f41686d61640000000000000000000000000000000000000000000000000000008152506040805190810160405280601081526020017f696d616765732f61686d61642e6a706700000000000000000000000000000000815250601e6040805190810160405280601481526020017f536f66747761726520456e67696e656572696e670000000000000000000000008152506040805190810160405280600681526020017f4d6173746572000000000000000000000000000000000000000000000000000081525062000447640100000000026401000000009004565b6200025760026040805190810160405280600581526020017f53617261680000000000000000000000000000000000000000000000000000008152506040805190810160405280601081526020017f696d616765732f73617261682e6a70670000000000000000000000000000000081525060286040805190810160405280601481526020017f536f66747761726520456e67696e656572696e670000000000000000000000008152506040805190810160405280600381526020017f506864000000000000000000000000000000000000000000000000000000000081525062000447640100000000026401000000009004565b6200034c60036040805190810160405280600581526020017f4b616269720000000000000000000000000000000000000000000000000000008152506040805190810160405280601081526020017f696d616765732f6b616269722e6a70670000000000000000000000000000000081525060236040805190810160405280600781526020017f4e6574776f726b000000000000000000000000000000000000000000000000008152506040805190810160405280600681526020017f4d6173746572000000000000000000000000000000000000000000000000000081525062000447640100000000026401000000009004565b6200044160046040805190810160405280600481526020017f4a6f686e000000000000000000000000000000000000000000000000000000008152506040805190810160405280600f81526020017f696d616765732f6a6f686e2e6a7067000000000000000000000000000000000081525060326040805190810160405280600881526020017f44617461626173650000000000000000000000000000000000000000000000008152506040805190810160405280600381526020017f506864000000000000000000000000000000000000000000000000000000000081525062000447640100000000026401000000009004565b62000609565b60036000815480929190600101919050555061010060405190810160405280878152602001868152602001858152602001848152602001838152602001828152602001600081526020016000815250600260006003548152602001908152602001600020600082015181600001556020820151816001019080519060200190620004d39291906200055a565b506040820151816002019080519060200190620004f29291906200055a565b506060820151816003015560808201518160040190805190602001906200051b9291906200055a565b5060a08201518160050190805190602001906200053a9291906200055a565b5060c0820151816006015560e08201518160070155905050505050505050565b828054600181600116156101000203166002900490600052602060002090601f016020900481019282601f106200059d57805160ff1916838001178555620005ce565b82800160010185558215620005ce579182015b82811115620005cd578251825591602001919060010190620005b0565b5b509050620005dd9190620005e1565b5090565b6200060691905b8082111562000602576000816000905550600101620005e8565b5090565b90565b610b2b80620006196000396000f300608060405260043610610078576000357c0100000000000000000000000000000000000000000000000000000000900463ffffffff1680631385d24c1461007d57806334ac0b401461009457806343bebfbf1461029a5780636dc85b07146102d157806391266d06146102fc578063ae887c2414610327575b600080fd5b34801561008957600080fd5b506100926103a3565b005b3480156100a057600080fd5b506100bf60048036038101908080359060200190929190505050610429565b604051808981526020018060200180602001888152602001806020018060200187815260200186815260200185810385528c818151815260200191508051906020019080838360005b83811015610123578082015181840152602081019050610108565b50505050905090810190601f1680156101505780820380516001836020036101000a031916815260200191505b5085810384528b818151815260200191508051906020019080838360005b8381101561018957808201518184015260208101905061016e565b50505050905090810190601f1680156101b65780820380516001836020036101000a031916815260200191505b50858103835289818151815260200191508051906020019080838360005b838110156101ef5780820151818401526020810190506101d4565b50505050905090810190601f16801561021c5780820380516001836020036101000a031916815260200191505b50858103825288818151815260200191508051906020019080838360005b8381101561025557808201518184015260208101905061023a565b50505050905090810190601f1680156102825780820380516001836020036101000a031916815260200191505b509c5050505050505050505050505060405180910390f35b3480156102a657600080fd5b506102cf60048036038101908080359060200190929190803590602001909291905050506106d1565b005b3480156102dd57600080fd5b506102e6610a8f565b6040518082815260200191505060405180910390f35b34801561030857600080fd5b50610311610a95565b6040518082815260200191505060405180910390f35b34801561033357600080fd5b50610368600480360381019080803573ffffffffffffffffffffffffffffffffffffffff169060200190929190505050610a9b565b604051808515151515815260200184151515158152602001831515151581526020018215151515815260200194505050505060405180910390f35b600060019054906101000a900473ffffffffffffffffffffffffffffffffffffffff1673ffffffffffffffffffffffffffffffffffffffff163373ffffffffffffffffffffffffffffffffffffffff161415156103ff57600080fd5b6000809054906101000a900460ff16156000806101000a81548160ff021916908315150217905550565b6002602052806000526040600020600091509050806000015490806001018054600181600116156101000203166002900480601f0160208091040260200160405190810160405280929190818152602001828054600181600116156101000203166002900480156104db5780601f106104b0576101008083540402835291602001916104db565b820191906000526020600020905b8154815290600101906020018083116104be57829003601f168201915b505050505090806002018054600181600116156101000203166002900480601f0160208091040260200160405190810160405280929190818152602001828054600181600116156101000203166002900480156105795780601f1061054e57610100808354040283529160200191610579565b820191906000526020600020905b81548152906001019060200180831161055c57829003601f168201915b505050505090806003015490806004018054600181600116156101000203166002900480601f01602080910402602001604051908101604052809291908181526020018280546001816001161561010002031660029004801561061d5780601f106105f25761010080835404028352916020019161061d565b820191906000526020600020905b81548152906001019060200180831161060057829003601f168201915b505050505090806005018054600181600116156101000203166002900480601f0160208091040260200160405190810160405280929190818152602001828054600181600116156101000203166002900480156106bb5780601f10610690576101008083540402835291602001916106bb565b820191906000526020600020905b81548152906001019060200180831161069e57829003601f168201915b5050505050908060060154908060070154905088565b60008060009054906101000a900460ff161515610a8a57600183141561074457600160003373ffffffffffffffffffffffffffffffffffffffff1673ffffffffffffffffffffffffffffffffffffffff16815260200190815260200160002060000160009054906101000a900460ff1690505b60028314156107a057600160003373ffffffffffffffffffffffffffffffffffffffff1673ffffffffffffffffffffffffffffffffffffffff16815260200190815260200160002060000160019054906101000a900460ff1690505b60038314156107fc57600160003373ffffffffffffffffffffffffffffffffffffffff1673ffffffffffffffffffffffffffffffffffffffff16815260200190815260200160002060000160029054906101000a900460ff1690505b600483141561085857600160003373ffffffffffffffffffffffffffffffffffffffff1673ffffffffffffffffffffffffffffffffffffffff16815260200190815260200160002060000160039054906101000a900460ff1690505b8015151561086557600080fd5b60008311801561087757506003548311155b151561088257600080fd5b60018314156108e65760018060003373ffffffffffffffffffffffffffffffffffffffff1673ffffffffffffffffffffffffffffffffffffffff16815260200190815260200160002060000160006101000a81548160ff0219169083151502179055505b600283141561094a5760018060003373ffffffffffffffffffffffffffffffffffffffff1673ffffffffffffffffffffffffffffffffffffffff16815260200190815260200160002060000160016101000a81548160ff0219169083151502179055505b60038314156109ae5760018060003373ffffffffffffffffffffffffffffffffffffffff1673ffffffffffffffffffffffffffffffffffffffff16815260200190815260200160002060000160026101000a81548160ff0219169083151502179055505b6004831415610a125760018060003373ffffffffffffffffffffffffffffffffffffffff1673ffffffffffffffffffffffffffffffffffffffff16815260200190815260200160002060000160036101000a81548160ff0219169083151502179055505b8160026000858152602001908152602001600020600601600082825401925050819055506002600084815260200190815260200160002060070160008154809291906001019190505550827fd3df2ec539ab34ce8c92b7632305d95f0ccd9ef52ca38388543185062a10256160405160405180910390a25b505050565b60035481565b60045481565b60016020528060005260406000206000915090508060000160009054906101000a900460ff16908060000160019054906101000a900460ff16908060000160029054906101000a900460ff16908060000160039054906101000a900460ff169050845600a165627a7a7230582021b36c91a51826d360954c23c29948838e12344f0c79584743f6faf28989bd0c0029",
  "source": "pragma solidity ^0.4.24;\n\ncontract Rating {\n\n  // Circuit Breaker\n\n  // check if the contract is stopped\n  bool private stopped = false;\n\n  // Store owner's address\n  address private owner;\n\n  modifier isAdmin() {\n      require(msg.sender == owner);\n      _;\n  }\n\n  // Activate/Deactivate the contract by Admin\n  function toggleContractActive() isAdmin public{\n      stopped = !stopped;\n  }\n\n  // modifiers for circuit breaker\n  modifier stopInEmergency { if (!stopped) _; }\n  modifier onlyInEmergency { if (stopped) _; }\n\n  // Teacher Model\n  struct Teacher {\n    uint id;\n    string name;\n    string image;\n    uint age;\n    string department;\n    string rank;\n    uint rating;\n    uint ratingCount;\n  }\n\n  // Raters Model\n  struct RateModel{\n    bool t1;\n    bool t2;\n    bool t3;\n    bool t4;\n  }\n\n  // Store raters\n  mapping(address => RateModel) public raters;\n\n  // Store teachers\n  mapping(uint => Teacher) public teachers;\n\n  // Store Teachers Count\n  uint public teachersCount;\n\n  // Store total rates\n  uint public totalRates;\n\n  // rated event\n  event ratedEvent(uint indexed _teacherId);\n\n  // Constructor add four teachers\n  function Rating() public {\n    // Assign owner's address\n    owner = msg.sender;\n\n    // Add teachers\n    addTeacher(1, \"Ahmad\",\"images/ahmad.jpg\", 30, \"Software Engineering\", \"Master\");\n    addTeacher(2, \"Sarah\",\"images/sarah.jpg\", 40, \"Software Engineering\", \"Phd\");\n    addTeacher(3, \"Kabir\",\"images/kabir.jpg\", 35, \"Network\", \"Master\");\n    addTeacher(4, \"John\",\"images/john.jpg\", 50, \"Database\", \"Phd\");\n  }\n\n  // function used to add the teachers to the teachers mapping\n  function addTeacher(uint _id, string _name, string _image, uint _age, string _dept, string _rank) private {\n    teachersCount++;\n    teachers[teachersCount] = Teacher(_id, _name, _image, _age, _dept, _rank, 0, 0);\n  }\n\n  function rate(uint _teacherId, uint value) stopInEmergency public{\n    // require a valid rater\n    bool rated;\n    if(_teacherId==1){\n      rated = raters[msg.sender].t1;\n    }\n    if(_teacherId==2){\n      rated = raters[msg.sender].t2;\n    }\n    if(_teacherId==3){\n      rated = raters[msg.sender].t3;\n    }\n    if(_teacherId==4){\n      rated = raters[msg.sender].t4;\n    }\n\n    // require that user has not already rated\n    require(!rated);\n\n    // require a valid teacher\n    require(_teacherId>0 && _teacherId<=teachersCount);\n\n    // record that rater has rated\n    if(_teacherId==1){\n      raters[msg.sender].t1 = true;\n    }\n    if(_teacherId==2){\n      raters[msg.sender].t2 = true;\n    }\n    if(_teacherId==3){\n      raters[msg.sender].t3 = true;\n    }\n    if(_teacherId==4){\n      raters[msg.sender].t4 = true;\n    }\n\n    // increment the rating for the teacher\n    teachers[_teacherId].rating+=value;\n\n    // update the rating count\n    teachers[_teacherId].ratingCount++;\n\n    // fire rated event\n    emit ratedEvent(_teacherId);\n  }\n\n}\n",
  "sourcePath": "/Volumes/MyFiles/Teachers Rating/contracts/Rating.sol",
  "compiler": {
    "name": "solc",
    "version": "0.4.24+commit.e67f0147.Emscripten.clang"
  },
  "schemaVersion": "2.0.1",
  "updatedAt": "2018-08-28T06:33:18.457Z"
}